{
  "_format": "hh-sol-artifact-1",
  "contractName": "NFT",
  "sourceName": "contracts/NFT.sol",
  "abi": [
    {
      "inputs": [
        {
          "internalType": "address",
          "name": "marketAddress",
          "type": "address"
        }
      ],
      "stateMutability": "nonpayable",
      "type": "constructor"
    },
    {
      "anonymous": false,
      "inputs": [
        {
          "indexed": true,
          "internalType": "address",
          "name": "account",
          "type": "address"
        },
        {
          "indexed": true,
          "internalType": "address",
          "name": "operator",
          "type": "address"
        },
        {
          "indexed": false,
          "internalType": "bool",
          "name": "approved",
          "type": "bool"
        }
      ],
      "name": "ApprovalForAll",
      "type": "event"
    },
    {
      "anonymous": false,
      "inputs": [
        {
          "indexed": true,
          "internalType": "address",
          "name": "previousOwner",
          "type": "address"
        },
        {
          "indexed": true,
          "internalType": "address",
          "name": "newOwner",
          "type": "address"
        }
      ],
      "name": "OwnershipTransferred",
      "type": "event"
    },
    {
      "anonymous": false,
      "inputs": [
        {
          "indexed": true,
          "internalType": "address",
          "name": "operator",
          "type": "address"
        },
        {
          "indexed": true,
          "internalType": "address",
          "name": "from",
          "type": "address"
        },
        {
          "indexed": true,
          "internalType": "address",
          "name": "to",
          "type": "address"
        },
        {
          "indexed": false,
          "internalType": "uint256[]",
          "name": "ids",
          "type": "uint256[]"
        },
        {
          "indexed": false,
          "internalType": "uint256[]",
          "name": "values",
          "type": "uint256[]"
        }
      ],
      "name": "TransferBatch",
      "type": "event"
    },
    {
      "anonymous": false,
      "inputs": [
        {
          "indexed": true,
          "internalType": "address",
          "name": "operator",
          "type": "address"
        },
        {
          "indexed": true,
          "internalType": "address",
          "name": "from",
          "type": "address"
        },
        {
          "indexed": true,
          "internalType": "address",
          "name": "to",
          "type": "address"
        },
        {
          "indexed": false,
          "internalType": "uint256",
          "name": "id",
          "type": "uint256"
        },
        {
          "indexed": false,
          "internalType": "uint256",
          "name": "value",
          "type": "uint256"
        }
      ],
      "name": "TransferSingle",
      "type": "event"
    },
    {
      "anonymous": false,
      "inputs": [
        {
          "indexed": false,
          "internalType": "string",
          "name": "value",
          "type": "string"
        },
        {
          "indexed": true,
          "internalType": "uint256",
          "name": "id",
          "type": "uint256"
        }
      ],
      "name": "URI",
      "type": "event"
    },
    {
      "inputs": [
        {
          "internalType": "address",
          "name": "account",
          "type": "address"
        },
        {
          "internalType": "uint256",
          "name": "id",
          "type": "uint256"
        }
      ],
      "name": "balanceOf",
      "outputs": [
        {
          "internalType": "uint256",
          "name": "",
          "type": "uint256"
        }
      ],
      "stateMutability": "view",
      "type": "function"
    },
    {
      "inputs": [
        {
          "internalType": "address[]",
          "name": "accounts",
          "type": "address[]"
        },
        {
          "internalType": "uint256[]",
          "name": "ids",
          "type": "uint256[]"
        }
      ],
      "name": "balanceOfBatch",
      "outputs": [
        {
          "internalType": "uint256[]",
          "name": "",
          "type": "uint256[]"
        }
      ],
      "stateMutability": "view",
      "type": "function"
    },
    {
      "inputs": [
        {
          "internalType": "uint256",
          "name": "id",
          "type": "uint256"
        }
      ],
      "name": "burn",
      "outputs": [],
      "stateMutability": "nonpayable",
      "type": "function"
    },
    {
      "inputs": [],
      "name": "currentId",
      "outputs": [
        {
          "internalType": "uint256",
          "name": "",
          "type": "uint256"
        }
      ],
      "stateMutability": "view",
      "type": "function"
    },
    {
      "inputs": [
        {
          "internalType": "address",
          "name": "account",
          "type": "address"
        },
        {
          "internalType": "address",
          "name": "operator",
          "type": "address"
        }
      ],
      "name": "isApprovedForAll",
      "outputs": [
        {
          "internalType": "bool",
          "name": "",
          "type": "bool"
        }
      ],
      "stateMutability": "view",
      "type": "function"
    },
    {
      "inputs": [
        {
          "internalType": "address",
          "name": "reciever",
          "type": "address"
        },
        {
          "internalType": "uint256",
          "name": "id",
          "type": "uint256"
        }
      ],
      "name": "mint",
      "outputs": [],
      "stateMutability": "nonpayable",
      "type": "function"
    },
    {
      "inputs": [],
      "name": "owner",
      "outputs": [
        {
          "internalType": "address",
          "name": "",
          "type": "address"
        }
      ],
      "stateMutability": "view",
      "type": "function"
    },
    {
      "inputs": [],
      "name": "renounceOwnership",
      "outputs": [],
      "stateMutability": "nonpayable",
      "type": "function"
    },
    {
      "inputs": [
        {
          "internalType": "address",
          "name": "from",
          "type": "address"
        },
        {
          "internalType": "address",
          "name": "to",
          "type": "address"
        },
        {
          "internalType": "uint256[]",
          "name": "ids",
          "type": "uint256[]"
        },
        {
          "internalType": "uint256[]",
          "name": "amounts",
          "type": "uint256[]"
        },
        {
          "internalType": "bytes",
          "name": "data",
          "type": "bytes"
        }
      ],
      "name": "safeBatchTransferFrom",
      "outputs": [],
      "stateMutability": "nonpayable",
      "type": "function"
    },
    {
      "inputs": [
        {
          "internalType": "address",
          "name": "from",
          "type": "address"
        },
        {
          "internalType": "address",
          "name": "to",
          "type": "address"
        },
        {
          "internalType": "uint256",
          "name": "id",
          "type": "uint256"
        },
        {
          "internalType": "uint256",
          "name": "amount",
          "type": "uint256"
        },
        {
          "internalType": "bytes",
          "name": "data",
          "type": "bytes"
        }
      ],
      "name": "safeTransferFrom",
      "outputs": [],
      "stateMutability": "nonpayable",
      "type": "function"
    },
    {
      "inputs": [
        {
          "internalType": "address",
          "name": "operator",
          "type": "address"
        },
        {
          "internalType": "bool",
          "name": "approved",
          "type": "bool"
        }
      ],
      "name": "setApprovalForAll",
      "outputs": [],
      "stateMutability": "nonpayable",
      "type": "function"
    },
    {
      "inputs": [
        {
          "internalType": "bytes4",
          "name": "interfaceId",
          "type": "bytes4"
        }
      ],
      "name": "supportsInterface",
      "outputs": [
        {
          "internalType": "bool",
          "name": "",
          "type": "bool"
        }
      ],
      "stateMutability": "view",
      "type": "function"
    },
    {
      "inputs": [
        {
          "internalType": "address",
          "name": "newOwner",
          "type": "address"
        }
      ],
      "name": "transferOwnership",
      "outputs": [],
      "stateMutability": "nonpayable",
      "type": "function"
    },
    {
      "inputs": [
        {
          "internalType": "uint256",
          "name": "i",
          "type": "uint256"
        }
      ],
      "name": "uint2hexstr",
      "outputs": [
        {
          "internalType": "string",
          "name": "",
          "type": "string"
        }
      ],
      "stateMutability": "pure",
      "type": "function"
    },
    {
      "inputs": [
        {
          "internalType": "uint256",
          "name": "_tokenID",
          "type": "uint256"
        }
      ],
      "name": "uri",
      "outputs": [
        {
          "internalType": "string",
          "name": "",
          "type": "string"
        }
      ],
      "stateMutability": "pure",
      "type": "function"
    }
  ],
  "bytecode": "0x60806040523480156200001157600080fd5b50604051620039ba380380620039ba8339818101604052810190620000379190620003e6565b604051806060016040528060228152602001620039986022913962000062816200009d60201b60201c565b506200008362000077620000b960201b60201c565b620000c160201b60201c565b620000968160016200018760201b60201c565b50620005a8565b8060029080519060200190620000b59291906200031f565b5050565b600033905090565b6000600360009054906101000a900473ffffffffffffffffffffffffffffffffffffffff16905081600360006101000a81548173ffffffffffffffffffffffffffffffffffffffff021916908373ffffffffffffffffffffffffffffffffffffffff1602179055508173ffffffffffffffffffffffffffffffffffffffff168173ffffffffffffffffffffffffffffffffffffffff167f8be0079c531659141344cd1fd0a4f28419497f9722a3daafe3b4186f6b6457e060405160405180910390a35050565b620001a96200019b620000b960201b60201c565b8383620001ad60201b60201c565b5050565b8173ffffffffffffffffffffffffffffffffffffffff168373ffffffffffffffffffffffffffffffffffffffff1614156200021f576040517f08c379a0000000000000000000000000000000000000000000000000000000008152600401620002169062000467565b60405180910390fd5b80600160008573ffffffffffffffffffffffffffffffffffffffff1673ffffffffffffffffffffffffffffffffffffffff16815260200190815260200160002060008473ffffffffffffffffffffffffffffffffffffffff1673ffffffffffffffffffffffffffffffffffffffff16815260200190815260200160002060006101000a81548160ff0219169083151502179055508173ffffffffffffffffffffffffffffffffffffffff168373ffffffffffffffffffffffffffffffffffffffff167f17307eab39ab6107e8899845ad3d59bd9653f200f220920489ca2b5937696c31836040516200031291906200044a565b60405180910390a3505050565b8280546200032d90620004da565b90600052602060002090601f0160209004810192826200035157600085556200039d565b82601f106200036c57805160ff19168380011785556200039d565b828001600101855582156200039d579182015b828111156200039c5782518255916020019190600101906200037f565b5b509050620003ac9190620003b0565b5090565b5b80821115620003cb576000816000905550600101620003b1565b5090565b600081519050620003e0816200058e565b92915050565b600060208284031215620003f957600080fd5b60006200040984828501620003cf565b91505092915050565b6200041d81620004ae565b82525050565b60006200043260298362000489565b91506200043f826200053f565b604082019050919050565b600060208201905062000461600083018462000412565b92915050565b60006020820190508181036000830152620004828162000423565b9050919050565b600082825260208201905092915050565b6000620004a782620004ba565b9050919050565b60008115159050919050565b600073ffffffffffffffffffffffffffffffffffffffff82169050919050565b60006002820490506001821680620004f357607f821691505b602082108114156200050a576200050962000510565b5b50919050565b7f4e487b7100000000000000000000000000000000000000000000000000000000600052602260045260246000fd5b7f455243313135353a2073657474696e6720617070726f76616c2073746174757360008201527f20666f722073656c660000000000000000000000000000000000000000000000602082015250565b62000599816200049a565b8114620005a557600080fd5b50565b6133e080620005b86000396000f3fe608060405234801561001057600080fd5b50600436106100f45760003560e01c80634e1273f411610097578063e00dd16111610066578063e00dd16114610281578063e985e9c51461029f578063f242432a146102cf578063f2fde38b146102eb576100f4565b80634e1273f41461020d578063715018a61461023d5780638da5cb5b14610247578063a22cb46514610265576100f4565b80632eb2c2d6116100d35780632eb2c2d6146101895780633c93d8be146101a557806340c10f19146101d557806342966c68146101f1576100f4565b8062fdd58e146100f957806301ffc9a7146101295780630e89341c14610159575b600080fd5b610113600480360381019061010e919061223b565b610307565b6040516101209190612a58565b60405180910390f35b610143600480360381019061013e91906122e3565b6103d0565b604051610150919061283b565b60405180910390f35b610173600480360381019061016e9190612335565b6104b2565b6040516101809190612856565b60405180910390f35b6101a3600480360381019061019e91906120b1565b6104e8565b005b6101bf60048036038101906101ba9190612335565b610589565b6040516101cc9190612856565b60405180910390f35b6101ef60048036038101906101ea919061223b565b61074a565b005b61020b60048036038101906102069190612335565b6107f0565b005b61022760048036038101906102229190612277565b61087b565b60405161023491906127e2565b60405180910390f35b610245610a2c565b005b61024f610ab4565b60405161025c9190612705565b60405180910390f35b61027f600480360381019061027a91906121ff565b610ade565b005b610289610af4565b6040516102969190612a58565b60405180910390f35b6102b960048036038101906102b49190612075565b610b05565b6040516102c6919061283b565b60405180910390f35b6102e960048036038101906102e49190612170565b610b99565b005b6103056004803603810190610300919061204c565b610c3a565b005b60008073ffffffffffffffffffffffffffffffffffffffff168373ffffffffffffffffffffffffffffffffffffffff161415610378576040517f08c379a000000000000000000000000000000000000000000000000000000000815260040161036f906128b8565b60405180910390fd5b60008083815260200190815260200160002060008473ffffffffffffffffffffffffffffffffffffffff1673ffffffffffffffffffffffffffffffffffffffff16815260200190815260200160002054905092915050565b60007fd9b67a26000000000000000000000000000000000000000000000000000000007bffffffffffffffffffffffffffffffffffffffffffffffffffffffff1916827bffffffffffffffffffffffffffffffffffffffffffffffffffffffff1916148061049b57507f0e89341c000000000000000000000000000000000000000000000000000000007bffffffffffffffffffffffffffffffffffffffffffffffffffffffff1916827bffffffffffffffffffffffffffffffffffffffffffffffffffffffff1916145b806104ab57506104aa82610d32565b5b9050919050565b6060806104be83610589565b9050806040516020016104d191906126e3565b604051602081830303815290604052915050919050565b6104f0610d9c565b73ffffffffffffffffffffffffffffffffffffffff168573ffffffffffffffffffffffffffffffffffffffff161480610536575061053585610530610d9c565b610b05565b5b610575576040517f08c379a000000000000000000000000000000000000000000000000000000000815260040161056c90612958565b60405180910390fd5b6105828585858585610da4565b5050505050565b606060008214156105d1576040518060400160405280600181526020017f30000000000000000000000000000000000000000000000000000000000000008152509050610745565b600082905060005b600082146105fb5780806105ec90612d2d565b915050600482901c91506105d9565b6000600f905060008267ffffffffffffffff811115610643577f4e487b7100000000000000000000000000000000000000000000000000000000600052604160045260246000fd5b6040519080825280601f01601f1916602001820160405280156106755781602001600182028036833780820191505090505b50905060008390505b6000871461073c5760008388169050600981116106aa578060306106a29190612bc6565b60f81b6106bb565b8060376106b79190612bc6565b60f81b5b83836106c690612cd2565b93508381518110610700577f4e487b7100000000000000000000000000000000000000000000000000000000600052603260045260246000fd5b60200101907effffffffffffffffffffffffffffffffffffffffffffffffffffffffffffff1916908160001a905350600488901c97505061067e565b81955050505050505b919050565b610752610d9c565b73ffffffffffffffffffffffffffffffffffffffff16610770610ab4565b73ffffffffffffffffffffffffffffffffffffffff16146107c6576040517f08c379a00000000000000000000000000000000000000000000000000000000081526004016107bd906129b8565b60405180910390fd5b6107d06004611104565b6107ec828260016040518060200160405280600081525061111a565b5050565b6107f8610d9c565b73ffffffffffffffffffffffffffffffffffffffff16610816610ab4565b73ffffffffffffffffffffffffffffffffffffffff161461086c576040517f08c379a0000000000000000000000000000000000000000000000000000000008152600401610863906129b8565b60405180910390fd5b610878338260016112b0565b50565b606081518351146108c1576040517f08c379a00000000000000000000000000000000000000000000000000000000081526004016108b8906129f8565b60405180910390fd5b6000835167ffffffffffffffff811115610904577f4e487b7100000000000000000000000000000000000000000000000000000000600052604160045260246000fd5b6040519080825280602002602001820160405280156109325781602001602082028036833780820191505090505b50905060005b8451811015610a21576109cb85828151811061097d577f4e487b7100000000000000000000000000000000000000000000000000000000600052603260045260246000fd5b60200260200101518583815181106109be577f4e487b7100000000000000000000000000000000000000000000000000000000600052603260045260246000fd5b6020026020010151610307565b828281518110610a04577f4e487b7100000000000000000000000000000000000000000000000000000000600052603260045260246000fd5b60200260200101818152505080610a1a90612d2d565b9050610938565b508091505092915050565b610a34610d9c565b73ffffffffffffffffffffffffffffffffffffffff16610a52610ab4565b73ffffffffffffffffffffffffffffffffffffffff1614610aa8576040517f08c379a0000000000000000000000000000000000000000000000000000000008152600401610a9f906129b8565b60405180910390fd5b610ab260006114cd565b565b6000600360009054906101000a900473ffffffffffffffffffffffffffffffffffffffff16905090565b610af0610ae9610d9c565b8383611593565b5050565b6000610b006004611700565b905090565b6000600160008473ffffffffffffffffffffffffffffffffffffffff1673ffffffffffffffffffffffffffffffffffffffff16815260200190815260200160002060008373ffffffffffffffffffffffffffffffffffffffff1673ffffffffffffffffffffffffffffffffffffffff16815260200190815260200160002060009054906101000a900460ff16905092915050565b610ba1610d9c565b73ffffffffffffffffffffffffffffffffffffffff168573ffffffffffffffffffffffffffffffffffffffff161480610be75750610be685610be1610d9c565b610b05565b5b610c26576040517f08c379a0000000000000000000000000000000000000000000000000000000008152600401610c1d90612918565b60405180910390fd5b610c33858585858561170e565b5050505050565b610c42610d9c565b73ffffffffffffffffffffffffffffffffffffffff16610c60610ab4565b73ffffffffffffffffffffffffffffffffffffffff1614610cb6576040517f08c379a0000000000000000000000000000000000000000000000000000000008152600401610cad906129b8565b60405180910390fd5b600073ffffffffffffffffffffffffffffffffffffffff168173ffffffffffffffffffffffffffffffffffffffff161415610d26576040517f08c379a0000000000000000000000000000000000000000000000000000000008152600401610d1d906128d8565b60405180910390fd5b610d2f816114cd565b50565b60007f01ffc9a7000000000000000000000000000000000000000000000000000000007bffffffffffffffffffffffffffffffffffffffffffffffffffffffff1916827bffffffffffffffffffffffffffffffffffffffffffffffffffffffff1916149050919050565b600033905090565b8151835114610de8576040517f08c379a0000000000000000000000000000000000000000000000000000000008152600401610ddf90612a18565b60405180910390fd5b600073ffffffffffffffffffffffffffffffffffffffff168473ffffffffffffffffffffffffffffffffffffffff161415610e58576040517f08c379a0000000000000000000000000000000000000000000000000000000008152600401610e4f90612938565b60405180910390fd5b6000610e62610d9c565b9050610e72818787878787611990565b60005b845181101561106f576000858281518110610eb9577f4e487b7100000000000000000000000000000000000000000000000000000000600052603260045260246000fd5b602002602001015190506000858381518110610efe577f4e487b7100000000000000000000000000000000000000000000000000000000600052603260045260246000fd5b60200260200101519050600080600084815260200190815260200160002060008b73ffffffffffffffffffffffffffffffffffffffff1673ffffffffffffffffffffffffffffffffffffffff16815260200190815260200160002054905081811015610f9f576040517f08c379a0000000000000000000000000000000000000000000000000000000008152600401610f9690612998565b60405180910390fd5b81810360008085815260200190815260200160002060008c73ffffffffffffffffffffffffffffffffffffffff1673ffffffffffffffffffffffffffffffffffffffff168152602001908152602001600020819055508160008085815260200190815260200160002060008b73ffffffffffffffffffffffffffffffffffffffff1673ffffffffffffffffffffffffffffffffffffffff16815260200190815260200160002060008282546110549190612bc6565b925050819055505050508061106890612d2d565b9050610e75565b508473ffffffffffffffffffffffffffffffffffffffff168673ffffffffffffffffffffffffffffffffffffffff168273ffffffffffffffffffffffffffffffffffffffff167f4a39dc06d4c0dbc64b70af90fd698a233a518aa5d07e595d983b8c0526c8f7fb87876040516110e6929190612804565b60405180910390a46110fc818787878787611998565b505050505050565b6001816000016000828254019250508190555050565b600073ffffffffffffffffffffffffffffffffffffffff168473ffffffffffffffffffffffffffffffffffffffff16141561118a576040517f08c379a000000000000000000000000000000000000000000000000000000000815260040161118190612a38565b60405180910390fd5b6000611194610d9c565b90506111b5816000876111a688611b7f565b6111af88611b7f565b87611990565b8260008086815260200190815260200160002060008773ffffffffffffffffffffffffffffffffffffffff1673ffffffffffffffffffffffffffffffffffffffff16815260200190815260200160002060008282546112149190612bc6565b925050819055508473ffffffffffffffffffffffffffffffffffffffff16600073ffffffffffffffffffffffffffffffffffffffff168273ffffffffffffffffffffffffffffffffffffffff167fc3d58168c5ae7397731d063d5bbf3d657854427343f4c083240f7aacaa2d0f628787604051611292929190612a73565b60405180910390a46112a981600087878787611c45565b5050505050565b600073ffffffffffffffffffffffffffffffffffffffff168373ffffffffffffffffffffffffffffffffffffffff161415611320576040517f08c379a000000000000000000000000000000000000000000000000000000000815260040161131790612978565b60405180910390fd5b600061132a610d9c565b905061135a8185600061133c87611b7f565b61134587611b7f565b60405180602001604052806000815250611990565b600080600085815260200190815260200160002060008673ffffffffffffffffffffffffffffffffffffffff1673ffffffffffffffffffffffffffffffffffffffff168152602001908152602001600020549050828110156113f1576040517f08c379a00000000000000000000000000000000000000000000000000000000081526004016113e8906128f8565b60405180910390fd5b82810360008086815260200190815260200160002060008773ffffffffffffffffffffffffffffffffffffffff1673ffffffffffffffffffffffffffffffffffffffff16815260200190815260200160002081905550600073ffffffffffffffffffffffffffffffffffffffff168573ffffffffffffffffffffffffffffffffffffffff168373ffffffffffffffffffffffffffffffffffffffff167fc3d58168c5ae7397731d063d5bbf3d657854427343f4c083240f7aacaa2d0f6287876040516114be929190612a73565b60405180910390a45050505050565b6000600360009054906101000a900473ffffffffffffffffffffffffffffffffffffffff16905081600360006101000a81548173ffffffffffffffffffffffffffffffffffffffff021916908373ffffffffffffffffffffffffffffffffffffffff1602179055508173ffffffffffffffffffffffffffffffffffffffff168173ffffffffffffffffffffffffffffffffffffffff167f8be0079c531659141344cd1fd0a4f28419497f9722a3daafe3b4186f6b6457e060405160405180910390a35050565b8173ffffffffffffffffffffffffffffffffffffffff168373ffffffffffffffffffffffffffffffffffffffff161415611602576040517f08c379a00000000000000000000000000000000000000000000000000000000081526004016115f9906129d8565b60405180910390fd5b80600160008573ffffffffffffffffffffffffffffffffffffffff1673ffffffffffffffffffffffffffffffffffffffff16815260200190815260200160002060008473ffffffffffffffffffffffffffffffffffffffff1673ffffffffffffffffffffffffffffffffffffffff16815260200190815260200160002060006101000a81548160ff0219169083151502179055508173ffffffffffffffffffffffffffffffffffffffff168373ffffffffffffffffffffffffffffffffffffffff167f17307eab39ab6107e8899845ad3d59bd9653f200f220920489ca2b5937696c31836040516116f3919061283b565b60405180910390a3505050565b600081600001549050919050565b600073ffffffffffffffffffffffffffffffffffffffff168473ffffffffffffffffffffffffffffffffffffffff16141561177e576040517f08c379a000000000000000000000000000000000000000000000000000000000815260040161177590612938565b60405180910390fd5b6000611788610d9c565b90506117a881878761179988611b7f565b6117a288611b7f565b87611990565b600080600086815260200190815260200160002060008873ffffffffffffffffffffffffffffffffffffffff1673ffffffffffffffffffffffffffffffffffffffff1681526020019081526020016000205490508381101561183f576040517f08c379a000000000000000000000000000000000000000000000000000000000815260040161183690612998565b60405180910390fd5b83810360008087815260200190815260200160002060008973ffffffffffffffffffffffffffffffffffffffff1673ffffffffffffffffffffffffffffffffffffffff168152602001908152602001600020819055508360008087815260200190815260200160002060008873ffffffffffffffffffffffffffffffffffffffff1673ffffffffffffffffffffffffffffffffffffffff16815260200190815260200160002060008282546118f49190612bc6565b925050819055508573ffffffffffffffffffffffffffffffffffffffff168773ffffffffffffffffffffffffffffffffffffffff168373ffffffffffffffffffffffffffffffffffffffff167fc3d58168c5ae7397731d063d5bbf3d657854427343f4c083240f7aacaa2d0f628888604051611971929190612a73565b60405180910390a4611987828888888888611c45565b50505050505050565b505050505050565b6119b78473ffffffffffffffffffffffffffffffffffffffff16611e2c565b15611b77578373ffffffffffffffffffffffffffffffffffffffff1663bc197c8187878686866040518663ffffffff1660e01b81526004016119fd959493929190612720565b602060405180830381600087803b158015611a1757600080fd5b505af1925050508015611a4857506040513d601f19601f82011682018060405250810190611a45919061230c565b60015b611aee57611a54612dd4565b806308c379a01415611ab15750611a696132b8565b80611a745750611ab3565b806040517f08c379a0000000000000000000000000000000000000000000000000000000008152600401611aa89190612856565b60405180910390fd5b505b6040517f08c379a0000000000000000000000000000000000000000000000000000000008152600401611ae590612878565b60405180910390fd5b63bc197c8160e01b7bffffffffffffffffffffffffffffffffffffffffffffffffffffffff1916817bffffffffffffffffffffffffffffffffffffffffffffffffffffffff191614611b75576040517f08c379a0000000000000000000000000000000000000000000000000000000008152600401611b6c90612898565b60405180910390fd5b505b505050505050565b60606000600167ffffffffffffffff811115611bc4577f4e487b7100000000000000000000000000000000000000000000000000000000600052604160045260246000fd5b604051908082528060200260200182016040528015611bf25781602001602082028036833780820191505090505b5090508281600081518110611c30577f4e487b7100000000000000000000000000000000000000000000000000000000600052603260045260246000fd5b60200260200101818152505080915050919050565b611c648473ffffffffffffffffffffffffffffffffffffffff16611e2c565b15611e24578373ffffffffffffffffffffffffffffffffffffffff1663f23a6e6187878686866040518663ffffffff1660e01b8152600401611caa959493929190612788565b602060405180830381600087803b158015611cc457600080fd5b505af1925050508015611cf557506040513d601f19601f82011682018060405250810190611cf2919061230c565b60015b611d9b57611d01612dd4565b806308c379a01415611d5e5750611d166132b8565b80611d215750611d60565b806040517f08c379a0000000000000000000000000000000000000000000000000000000008152600401611d559190612856565b60405180910390fd5b505b6040517f08c379a0000000000000000000000000000000000000000000000000000000008152600401611d9290612878565b60405180910390fd5b63f23a6e6160e01b7bffffffffffffffffffffffffffffffffffffffffffffffffffffffff1916817bffffffffffffffffffffffffffffffffffffffffffffffffffffffff191614611e22576040517f08c379a0000000000000000000000000000000000000000000000000000000008152600401611e1990612898565b60405180910390fd5b505b505050505050565b6000808273ffffffffffffffffffffffffffffffffffffffff163b119050919050565b6000611e62611e5d84612ac1565b612a9c565b90508083825260208201905082856020860282011115611e8157600080fd5b60005b85811015611eb15781611e978882611f65565b845260208401935060208301925050600181019050611e84565b5050509392505050565b6000611ece611ec984612aed565b612a9c565b90508083825260208201905082856020860282011115611eed57600080fd5b60005b85811015611f1d5781611f038882612037565b845260208401935060208301925050600181019050611ef0565b5050509392505050565b6000611f3a611f3584612b19565b612a9c565b905082815260208101848484011115611f5257600080fd5b611f5d848285612c90565b509392505050565b600081359050611f748161334e565b92915050565b600082601f830112611f8b57600080fd5b8135611f9b848260208601611e4f565b91505092915050565b600082601f830112611fb557600080fd5b8135611fc5848260208601611ebb565b91505092915050565b600081359050611fdd81613365565b92915050565b600081359050611ff28161337c565b92915050565b6000815190506120078161337c565b92915050565b600082601f83011261201e57600080fd5b813561202e848260208601611f27565b91505092915050565b60008135905061204681613393565b92915050565b60006020828403121561205e57600080fd5b600061206c84828501611f65565b91505092915050565b6000806040838503121561208857600080fd5b600061209685828601611f65565b92505060206120a785828601611f65565b9150509250929050565b600080600080600060a086880312156120c957600080fd5b60006120d788828901611f65565b95505060206120e888828901611f65565b945050604086013567ffffffffffffffff81111561210557600080fd5b61211188828901611fa4565b935050606086013567ffffffffffffffff81111561212e57600080fd5b61213a88828901611fa4565b925050608086013567ffffffffffffffff81111561215757600080fd5b6121638882890161200d565b9150509295509295909350565b600080600080600060a0868803121561218857600080fd5b600061219688828901611f65565b95505060206121a788828901611f65565b94505060406121b888828901612037565b93505060606121c988828901612037565b925050608086013567ffffffffffffffff8111156121e657600080fd5b6121f28882890161200d565b9150509295509295909350565b6000806040838503121561221257600080fd5b600061222085828601611f65565b925050602061223185828601611fce565b9150509250929050565b6000806040838503121561224e57600080fd5b600061225c85828601611f65565b925050602061226d85828601612037565b9150509250929050565b6000806040838503121561228a57600080fd5b600083013567ffffffffffffffff8111156122a457600080fd5b6122b085828601611f7a565b925050602083013567ffffffffffffffff8111156122cd57600080fd5b6122d985828601611fa4565b9150509250929050565b6000602082840312156122f557600080fd5b600061230384828501611fe3565b91505092915050565b60006020828403121561231e57600080fd5b600061232c84828501611ff8565b91505092915050565b60006020828403121561234757600080fd5b600061235584828501612037565b91505092915050565b600061236a83836126c5565b60208301905092915050565b61237f81612c1c565b82525050565b600061239082612b5a565b61239a8185612b88565b93506123a583612b4a565b8060005b838110156123d65781516123bd888261235e565b97506123c883612b7b565b9250506001810190506123a9565b5085935050505092915050565b6123ec81612c2e565b82525050565b60006123fd82612b65565b6124078185612b99565b9350612417818560208601612c9f565b61242081612df6565b840191505092915050565b600061243682612b70565b6124408185612baa565b9350612450818560208601612c9f565b61245981612df6565b840191505092915050565b600061246f82612b70565b6124798185612bbb565b9350612489818560208601612c9f565b80840191505092915050565b60006124a2603483612baa565b91506124ad82612e14565b604082019050919050565b60006124c5602883612baa565b91506124d082612e63565b604082019050919050565b60006124e8602b83612baa565b91506124f382612eb2565b604082019050919050565b600061250b602683612baa565b915061251682612f01565b604082019050919050565b600061252e602483612baa565b915061253982612f50565b604082019050919050565b6000612551602983612baa565b915061255c82612f9f565b604082019050919050565b6000612574601e83612bbb565b915061257f82612fee565b601e82019050919050565b6000612597602583612baa565b91506125a282613017565b604082019050919050565b60006125ba603283612baa565b91506125c582613066565b604082019050919050565b60006125dd602383612baa565b91506125e8826130b5565b604082019050919050565b6000612600602a83612baa565b915061260b82613104565b604082019050919050565b6000612623602083612baa565b915061262e82613153565b602082019050919050565b6000612646602983612baa565b91506126518261317c565b604082019050919050565b6000612669602983612baa565b9150612674826131cb565b604082019050919050565b600061268c602883612baa565b91506126978261321a565b604082019050919050565b60006126af602183612baa565b91506126ba82613269565b604082019050919050565b6126ce81612c86565b82525050565b6126dd81612c86565b82525050565b60006126ee82612567565b91506126fa8284612464565b915081905092915050565b600060208201905061271a6000830184612376565b92915050565b600060a0820190506127356000830188612376565b6127426020830187612376565b81810360408301526127548186612385565b905081810360608301526127688185612385565b9050818103608083015261277c81846123f2565b90509695505050505050565b600060a08201905061279d6000830188612376565b6127aa6020830187612376565b6127b760408301866126d4565b6127c460608301856126d4565b81810360808301526127d681846123f2565b90509695505050505050565b600060208201905081810360008301526127fc8184612385565b905092915050565b6000604082019050818103600083015261281e8185612385565b905081810360208301526128328184612385565b90509392505050565b600060208201905061285060008301846123e3565b92915050565b60006020820190508181036000830152612870818461242b565b905092915050565b6000602082019050818103600083015261289181612495565b9050919050565b600060208201905081810360008301526128b1816124b8565b9050919050565b600060208201905081810360008301526128d1816124db565b9050919050565b600060208201905081810360008301526128f1816124fe565b9050919050565b6000602082019050818103600083015261291181612521565b9050919050565b6000602082019050818103600083015261293181612544565b9050919050565b600060208201905081810360008301526129518161258a565b9050919050565b60006020820190508181036000830152612971816125ad565b9050919050565b60006020820190508181036000830152612991816125d0565b9050919050565b600060208201905081810360008301526129b1816125f3565b9050919050565b600060208201905081810360008301526129d181612616565b9050919050565b600060208201905081810360008301526129f181612639565b9050919050565b60006020820190508181036000830152612a118161265c565b9050919050565b60006020820190508181036000830152612a318161267f565b9050919050565b60006020820190508181036000830152612a51816126a2565b9050919050565b6000602082019050612a6d60008301846126d4565b92915050565b6000604082019050612a8860008301856126d4565b612a9560208301846126d4565b9392505050565b6000612aa6612ab7565b9050612ab28282612cfc565b919050565b6000604051905090565b600067ffffffffffffffff821115612adc57612adb612da5565b5b602082029050602081019050919050565b600067ffffffffffffffff821115612b0857612b07612da5565b5b602082029050602081019050919050565b600067ffffffffffffffff821115612b3457612b33612da5565b5b612b3d82612df6565b9050602081019050919050565b6000819050602082019050919050565b600081519050919050565b600081519050919050565b600081519050919050565b6000602082019050919050565b600082825260208201905092915050565b600082825260208201905092915050565b600082825260208201905092915050565b600081905092915050565b6000612bd182612c86565b9150612bdc83612c86565b9250827fffffffffffffffffffffffffffffffffffffffffffffffffffffffffffffffff03821115612c1157612c10612d76565b5b828201905092915050565b6000612c2782612c66565b9050919050565b60008115159050919050565b60007fffffffff0000000000000000000000000000000000000000000000000000000082169050919050565b600073ffffffffffffffffffffffffffffffffffffffff82169050919050565b6000819050919050565b82818337600083830152505050565b60005b83811015612cbd578082015181840152602081019050612ca2565b83811115612ccc576000848401525b50505050565b6000612cdd82612c86565b91506000821415612cf157612cf0612d76565b5b600182039050919050565b612d0582612df6565b810181811067ffffffffffffffff82111715612d2457612d23612da5565b5b80604052505050565b6000612d3882612c86565b91507fffffffffffffffffffffffffffffffffffffffffffffffffffffffffffffffff821415612d6b57612d6a612d76565b5b600182019050919050565b7f4e487b7100000000000000000000000000000000000000000000000000000000600052601160045260246000fd5b7f4e487b7100000000000000000000000000000000000000000000000000000000600052604160045260246000fd5b600060033d1115612df35760046000803e612df0600051612e07565b90505b90565b6000601f19601f8301169050919050565b60008160e01c9050919050565b7f455243313135353a207472616e7366657220746f206e6f6e204552433131353560008201527f526563656976657220696d706c656d656e746572000000000000000000000000602082015250565b7f455243313135353a204552433131353552656365697665722072656a6563746560008201527f6420746f6b656e73000000000000000000000000000000000000000000000000602082015250565b7f455243313135353a2062616c616e636520717565727920666f7220746865207a60008201527f65726f2061646472657373000000000000000000000000000000000000000000602082015250565b7f4f776e61626c653a206e6577206f776e657220697320746865207a65726f206160008201527f6464726573730000000000000000000000000000000000000000000000000000602082015250565b7f455243313135353a206275726e20616d6f756e7420657863656564732062616c60008201527f616e636500000000000000000000000000000000000000000000000000000000602082015250565b7f455243313135353a2063616c6c6572206973206e6f74206f776e6572206e6f7260008201527f20617070726f7665640000000000000000000000000000000000000000000000602082015250565b7f68747470733a2f2f697066732e696f2f697066732f6630313730313232300000600082015250565b7f455243313135353a207472616e7366657220746f20746865207a65726f20616460008201527f6472657373000000000000000000000000000000000000000000000000000000602082015250565b7f455243313135353a207472616e736665722063616c6c6572206973206e6f742060008201527f6f776e6572206e6f7220617070726f7665640000000000000000000000000000602082015250565b7f455243313135353a206275726e2066726f6d20746865207a65726f206164647260008201527f6573730000000000000000000000000000000000000000000000000000000000602082015250565b7f455243313135353a20696e73756666696369656e742062616c616e636520666f60008201527f72207472616e7366657200000000000000000000000000000000000000000000602082015250565b7f4f776e61626c653a2063616c6c6572206973206e6f7420746865206f776e6572600082015250565b7f455243313135353a2073657474696e6720617070726f76616c2073746174757360008201527f20666f722073656c660000000000000000000000000000000000000000000000602082015250565b7f455243313135353a206163636f756e747320616e6420696473206c656e67746860008201527f206d69736d617463680000000000000000000000000000000000000000000000602082015250565b7f455243313135353a2069647320616e6420616d6f756e7473206c656e6774682060008201527f6d69736d61746368000000000000000000000000000000000000000000000000602082015250565b7f455243313135353a206d696e7420746f20746865207a65726f2061646472657360008201527f7300000000000000000000000000000000000000000000000000000000000000602082015250565b600060443d10156132c85761334b565b6132d0612ab7565b60043d036004823e80513d602482011167ffffffffffffffff821117156132f857505061334b565b808201805167ffffffffffffffff811115613316575050505061334b565b80602083010160043d03850181111561333357505050505061334b565b61334282602001850186612cfc565b82955050505050505b90565b61335781612c1c565b811461336257600080fd5b50565b61336e81612c2e565b811461337957600080fd5b50565b61338581612c3a565b811461339057600080fd5b50565b61339c81612c86565b81146133a757600080fd5b5056fea2646970667358221220b21d7eb4bd252617d1858abc0be2608799b12d2e3f1054e29b841a53db6d0eb964736f6c6343000804003368747470733a2f2f697066732e696f2f697066732f6630313730313232307b69647d",
  "linkReferences": {},
  "deployedLinkReferences": {}
}